:020000040800F2
:100000006806002029020008D3030008CB0300087B
:10001000CF030008E3020008850700080000000085
:1000200000000000000000000000000019040008AB
:10003000E702000800000000D5030008D105000811
:10004000430200084302000843020008430200087C
:10005000430200084302000843020008430200086C
:10006000430200084302000843020008430200085C
:10007000430200084302000843020008430200084C
:10008000430200084302000843020008430200083C
:10009000430200084302000843020008430200082C
:1000A000430200084302000843020008430200081C
:1000B000430200084302000843020008430200080C
:1000C00043020008430200084302000843020008FC
:1000D00043020008430200084302000843020008EC
:1000E00043020008430200084302000843020008DC
:1000F00043020008430200084302000843020008CC
:1001000043020008430200084302000843020008BB
:1001100043020008430200084302000843020008AB
:10012000430200084302000843020008430200089B
:10013000430200084302000843020008430200088B
:10014000430200084302000843020008430200087B
:10015000430200084302000843020008430200086B
:10016000430200084302000843020008430200085B
:10017000430200084302000843020008430200084B
:10018000430200084302000800F002F800F03CF8C7
:100190000AA090E8000C82448344AAF10107DA45E2
:1001A00001D100F031F8AFF2090EBAE80F0013F0F8
:1001B000010F18BFFB1A43F0010318479C0600000B
:1001C000BC060000103A24BF78C878C1FAD852079C
:1001D00024BF30C830C144BF04680C6070470000C1
:1001E0000023002400250026103A28BF78C1FBD840
:1001F000520728BF30C148BF0B6070471FB500F0E1
:1002000025FB1FBD10B510BD00F031F81146FFF7FA
:10021000F5FF00F0EFFA00F04FF803B4FFF7F2FF3C
:1002200003BC00F057F80000094880470948004720
:10023000FEE7FEE7FEE7FEE7FEE7FEE7FEE7FEE796
:10024000FEE7FEE704480549054A064B70470000F3
:10025000D505000889010008680000206806002014
:10026000680200206802002070477047704775469A
:1002700000F02CF8AE4605006946534620F0070012
:10028000854618B020B5FFF7DDFFBDE820404FF0F0
:1002900000064FF000074FF000084FF0000B21F070
:1002A0000701AC46ACE8C009ACE8C009ACE8C0093D
:1002B000ACE8C0098D46704710B50446AFF3008026
:1002C0002046BDE81040FFF7A8BF00000048704777
:1002D0000800002001491820ABBEFEE726000200FE
:1002E000704700BFFEE7704710B56FF0040000F0E4
:1002F0005BF910BDF0B50A4600210023002400BFC1
:100300003DE0012505FA01F3156805EA03049C4266
:1003100034D105684F000326BE40B543056015790A
:100320004E00B5400668354305601579012D02D0B1
:100330001579022D16D185684F000326BE40B543BE
:10034000856055794E00B5408668354385604568BF
:1003500001268E40B5434560456896798E40B6B219
:1003600035434560C5684F000326BE40B543C560B0
:10037000D5794E00B540C6683543C560491C102983
:10038000BFD3F0BDF0B5002300244D07ED0E02FAF7
:1003900005F3CE1000F1200555F826504E07F70E54
:1003A0000F26BE40B543CF1000F1200646F8275077
:1003B000CE1000F1200555F8265045EA0304CE1072
:1003C00000F1200545F82640F0BD00BFFEE700BF64
:1003D000FEE770477047000029B1064A12680243E1
:1003E000044B1A6004E0034A12688243014B1A600E
:1003F000704700003038024029B1064A12680243B3
:10040000044B1A6004E0034A12688243014B1A60ED
:100410007047000044380240704700000CB50020CF
:10042000019000903448006840F480303249086000
:1004300000BF3148006800F4003000900198401C73
:100440000190009818B90198B0F5A04FF1D12A4851
:10045000006800F4003010B10120009001E000209D
:1004600000900098012846D123484030006840F0B1
:1004700080502149403108602048006840F44040E5
:100480001E4908601C48083000681B490831086094
:100490000846006840F4004008600846006840F4E0
:1004A000A05008601648091F0860081F006840F047
:1004B0008070091F086000BF0F48006800F00070DE
:1004C0000028F9D040F205700E4908600A4808304B
:1004D000006820F0030008490831086008460068F9
:1004E00040F00200086000BF03480830006800F0D8
:1004F0000C000828F8D10CBD003802400070004004
:1005000008544007003C024000B58BB001210804AC
:10051000FFF772FF01211020FFF75EFF20200990F6
:1005200002208DF8280000208DF82A0001208DF887
:1005300029008DF82B0009A91948FFF7DBFE0322DB
:1005400005211748FFF71EFF44F29F10ADF8040085
:10055000C72002900020ADF80600ADF80C0001A9FC
:10056000104800F0CDF87020ADF810000020ADF874
:100570001C0006900120ADF8120004A9094800F003
:1005800075F80821074800F0AFF80121054800F090
:1005900055F80121034800F05DF80BB000BD0000E4
:1005A0000010024000400140042808D14FF0E02133
:1005B000096941F004014FF0E022116107E04FF0BA
:1005C000E021096921F004014FF0E0221161704738
:1005D0007047000010B51548006840F470001349DA
:1005E00008601348006840F00100114908600020CD
:1005F0000F49083108600E4800680E4908400C4950
:1006000008600D48091D0860081F006820F480205C
:10061000091F0860002006490C310860FFF7FEFE44
:100620004FF0006001498039086010BD88ED00E09E
:1006300000380240FFFFF6FE1030002421B102888E
:1006400042F08002028004E002884FF67F731A4075
:100650000280704721B1028842F00102028004E06A
:1006600002884FF6FE731A400280704770B500246E
:1006700000220023058C4FF6FE7635400584028C5F
:100680008388048B4FF68F752C40B51E2C400D8847
:100690002C43751E2A408D892A434D882A43104DCC
:1006A000A84202D00F4DA84213D14FF6F7752A4049
:1006B000CD892A434FF6FB752A408D882A434FF691
:1006C000FF652B404FF6FF552B400D8A2B434D8A7B
:1006D0002B43838004838D684563028470BD0000D2
:1006E00000000140000401400A460021018B4FF642
:1006F000F77319401143018370474163704700004D
:1007000000220288184B98420ED0184B98420BD00A
:10071000B0F1804F08D0164B984205D0154B984247
:1007200002D0154B984204D14FF68F731A404B8874
:100730001A43124B984207D0114B984204D04FF6FF
:10074000FF431A400B891A4302804B68C3620B882F
:100750000385054B984202D0044B984201D18B7A15
:10076000038601238382704700000140000401409A
:100770000004004000080040000C00400010004051
:100780000014004000BFFEE70021114A12684243F6
:10079000521E4FF0E0235A6100229A611A461269F4
:1007A00042F001021A6100BF4FF0E022116901F02E
:1007B00001021AB101F48032002AF5D04FF0E02294
:1007C000126922F001024FF0E0231A617047000025
:1007D0000400002030B50446002508E04FF4FA700C
:1007E000FFF7D2FF4FF4FA70FFF7CEFF6D1CA54262
:1007F000F4D330BDFFF778FDFFF786FE22E0AF218E
:100800001148FFF77AFF0120FFF7E4FFB4210E48FB
:10081000FFF773FF0120FFF7DDFFB9210A48FFF75B
:100820006CFF0120FFF7D6FFBE210748FFF765FFE9
:100830000120FFF7CFFFC3210348FFF75EFF012030
:10084000FFF7C8FFDBE70000004001404FF04070B9
:10085000E1EE100A70470000780800080000002050
:1008600008000000C40100088008000808000020FB
:1008700060060000E00100081500000008520000BA
:040000050800018965
:00000001FF
