:020000040800F2
:10000000600600200D02000889050008E1030008D1
:1000100085050008C70200089509000800000000D7
:10002000000000000000000000000000ED050008D6
:10003000FD020008000000008B050008050700080D
:1000400027020008270200082702000827020008EC
:1000500027020008270200082702000827020008DC
:1000600027020008270200082702000827020008CC
:1000700027020008270200082702000827020008BC
:1000800027020008270200082702000827020008AC
:10009000270200082702000827020008270200089C
:1000A000270200082702000827020008270200088C
:1000B000270200082702000827020008270200087C
:1000C000270200082702000827020008270200086C
:1000D000270200082702000827020008270200085C
:1000E000270200082702000827020008270200084C
:1000F000270200082702000827020008270200083C
:10010000270200082702000827020008270200082B
:10011000270200082702000827020008270200081B
:10012000270200082702000827020008270200080B
:1001300027020008270200082702000827020008FB
:1001400027020008270200082702000827020008EB
:1001500027020008270200082702000827020008DB
:1001600027020008270200082702000827020008CB
:1001700027020008270200082702000827020008BB
:10018000270200082702000800F002F800F02EF80D
:100190000AA090E8000C82448344AAF10107DA45E2
:1001A00001D100F023F8AFF2090EBAE80F0013F006
:1001B000010F18BFFB1A43F001031847FC070000AA
:1001C0000C0800000023002400250026103A28BF58
:1001D00078C1FBD8520728BF30C148BF0B607047B9
:1001E0001FB500F0E3FB1FBD10B510BD00F031F8E6
:1001F0001146FFF7F5FF00F0CFFB00F04FF803B416
:10020000FFF7F2FF03BC00F057F8000009488047F1
:1002100009480047FEE7FEE7FEE7FEE7FEE7FEE7E8
:10022000FEE7FEE7FEE7FEE704480549054A064B00
:1002300070470000090700088901000860000020DD
:1002400060060020600200206002002070477047B6
:100250007047754600F02CF8AE46050069465346D7
:1002600020F00700854618B020B5FFF7DDFFBDE898
:1002700020404FF000064FF000074FF000084FF00D
:10028000000B21F00701AC46ACE8C009ACE8C0099E
:10029000ACE8C009ACE8C0098D46704710B504460B
:1002A000AFF300802046BDE81040FFF7A8BF000074
:1002B000004870470000002001491820ABBEFEE74F
:1002C00026000200704700BFFEE7000010B50021C5
:1002D000084800F01AFB4FF49671064800F013FB33
:1002E0000021054800F011FB4FF49671024800F020
:1002F0000AFB10BD0000014000080040704710B527
:100300006FF0040000F0EAF910BDF0B50A460021D4
:100310000023002400BF3DE0012505FA01F3156824
:1003200005EA03049C4234D105684F000326BE4011
:10033000B543056015794E00B54006683543056044
:100340001579012D02D01579022D16D185684F003F
:100350000326BE40B543856055794E00B54086689A
:1003600035438560456801268E40B5434560456844
:1003700096798E40B6B235434560C5684F00032676
:10038000BE40B543C560D5794E00B540C66835431B
:10039000C560491C1029BFD3F0BDF0B5002300246F
:1003A0004D07ED0E02FA05F3CE1000F1200555F8C9
:1003B00026504E07F70E0F26BE40B543CF1000F172
:1003C000200646F82750CE1000F1200555F826509B
:1003D00045EA0304CE1000F1200545F82640F0BDA3
:1003E00000BFFEE700B58BB00121042000F0DEF86D
:1003F0000121082000F0CAF802208DF82800002012
:100400008DF82A0001208DF829008DF82B0080033B
:10041000099009A92348FFF778FF4FF4004009909D
:1004200009A92048FFF771FF02220E211D48FFF79E
:10043000B4FF02220F211B48FFF7AFFF5320ADF896
:10044000040040F2E73002900020ADF80600ADF85D
:100450000C0001A9144800F05BFA6020ADF8100010
:100460000020ADF81C0006900120ADF8120004A990
:100470000D4800F0A5F904A90B4800F0FBF908218C
:10048000094800F0EDF90821074800F02FFA012192
:10049000054800F06DF90121034800F075F90BB033
:1004A00000BD0000000C02400008004000B58BB009
:1004B0000121084600F08AF80121102000F066F8BA
:1004C00002208DF8280000208DF82A0001208DF8E8
:1004D00029008DF82B004003099009A92748FFF750
:1004E00014FF4FF48040099009A92448FFF70DFF3D
:1004F00001220D212148FFF750FF01220E211F4844
:10050000FFF74BFFA720ADF8040040F2E730029060
:100510000020ADF80600ADF80C0001A9184800F065
:10052000F7F97020ADF810000220ADF81C00002093
:1005300006900120ADF812000020ADF8200004A9BB
:100540000F4800F03DF904A90D4800F093F9082187
:100550000B4800F085F90821094800F0C7F901218E
:10056000074800F005F90121054800F019F90121BB
:10057000034800F009F90BB000BD00000010024074
:100580000000014000BFFEE77047704729B1064AEE
:1005900012680243044B1A6004E0034A1268824363
:1005A000014B1A60704700003038024029B1064AFA
:1005B00012680243044B1A6004E0034A1268824343
:1005C000014B1A60704700004038024029B1064ACA
:1005D00012680243044B1A6004E0034A1268824323
:1005E000014B1A6070470000443802407047000019
:1005F0000CB50020019000903448006840F4803031
:100600003249086000BF3148006800F400300090B3
:100610000198401C0190009818B90198B0F5A04FBE
:10062000F1D12A48006800F4003010B10120009098
:1006300001E0002000900098012846D12348403076
:10064000006840F08050214940310860204800682F
:1006500040F440401E4908601C48083000681B49AF
:10066000083108600846006840F400400860084609
:10067000006840F4A05008601648091F0860081F71
:10068000006840F08070091F086000BF0F480068D4
:1006900000F000700028F9D040F205700E490860A3
:1006A0000A480830006820F0030008490831086053
:1006B0000846006840F00200086000BF03480830A8
:1006C000006800F00C000828F8D10CBD003802408A
:1006D0000070004008544007003C0240042808D144
:1006E0004FF0E021096941F004014FF0E02211616F
:1006F00007E04FF0E021096921F004014FF0E0220A
:10070000116170477047000010B51548006840F44B
:100710007000134908601348006840F00100114957
:10072000086000200F49083108600E4800680E4933
:1007300008400C4908600D48091D0860081F006842
:1007400020F48020091F0860002006490C31086051
:10075000FFF74EFF4FF0006001498039086010BD7F
:1007600088ED00E000380240FFFFF6FE1030002464
:1007700021B1028842F08002028004E002884FF634
:100780007F731A400280704721B1028842F0010253
:10079000028004E002884FF6FE731A400280704720
:1007A00031B1B0F8442042F40042A0F8442005E002
:1007B000B0F84420C2F30E02A0F8442070470000B5
:1007C00070B5002400220023058C4FF6FF663540EB
:1007D0000584028C8388848B4FF68F752C404FF6EE
:1007E000FC752C400D882C434FF6FF552A408D890F
:1007F0004FF6FF7606EA05252A434D8806EA0525C9
:100800002A43154DA84202D0144DA8421DD14FF2E3
:10081000FF752A40CD894FF6FF7606EA05252A4363
:100820004FF6FF352A408D8806EA05252A434EF605
:10083000FF752B404DF6FF752B400D8A06EA051516
:100840002B434D8A06EA05152B43838084838D68EC
:10085000C563028470BD0000000001400004014037
:100860000A460021818B4FF6F773194011438183AB
:100870007047000070B5002200230024058C4EF65E
:10088000FF7635400584038C8488828B48F6FF759B
:100890002A404FF6FF452A400D884FF6FF7606EABC
:1008A00005252A434DF6FF752B408D8906EA05354F
:1008B0002B434D8806EA05352B430A4DA84202D04A
:1008C000094DA84208D14BF6FF752C400D8A4FF612
:1008D000FF7606EA85152C43848082838D68056443
:1008E000038470BD00000140000401400A4600215D
:1008F000818B4FF2FF7319404FF6FF7303EA022317
:10090000194381837047C1637047016470470000D9
:1009100000220288184B98420ED0184B98420BD0F8
:10092000B0F1804F08D0164B984205D0154B984235
:1009300002D0154B984204D14FF68F731A404B8862
:100940001A43124B984207D0114B984204D04FF6ED
:10095000FF431A400B891A4302804B68C3620B881D
:100960000385054B984202D0044B984201D18B7A03
:100970000386012383827047000001400004014088
:100980000004004000080040000C0040001000403F
:100990000014004000BFFEE7FFF7B1FCFFF722FDA7
:1009A000FFF784FDFFF792FC00BFFEE74FF04070B9
:1009B000E1EE100A70470000C8090008000000209E
:0809C00060060000C4010008FC
:040000050800018965
:00000001FF
