:020000040800F2
:10000000B806002029020008610B0008F908000862
:100010005D0B0008E30200085F1600080000000006
:100020000000000000000000000000003D0D00087E
:100030007D06000800000000F10B00088110000898
:10004000430200084302000843020008430200087C
:10005000430200084302000843020008430200086C
:10006000430200084302000843020008430200085C
:10007000430200084302000843020008430200084C
:10008000430200084302000843020008430200083C
:10009000430200084302000843020008430200082C
:1000A000430200084302000843020008430200081C
:1000B00043020008ED100008430200084302000854
:1000C00043020008430200084302000843020008FC
:1000D0004302000843020008430200080D14000810
:1000E00043020008430200084302000843020008DC
:1000F00043020008430200084302000843020008CC
:1001000043020008430200084302000843020008BB
:1001100043020008430200084302000843020008AB
:10012000430200084302000843020008430200089B
:10013000430200084302000843020008430200088B
:10014000430200084302000843020008430200087B
:10015000430200084302000843020008430200086B
:10016000430200084302000843020008430200085B
:10017000430200084302000843020008430200084B
:10018000430200084302000800F002F800F03CF8C7
:100190000AA090E8000C82448344AAF10107DA45E2
:1001A00001D100F031F8AFF2090EBAE80F0013F0F8
:1001B000010F18BFFB1A43F001031847A81A0000EB
:1001C000C81A0000103A24BF78C878C1FAD852077C
:1001D00024BF30C830C144BF04680C6070470000C1
:1001E0000023002400250026103A28BF78C1FBD840
:1001F000520728BF30C148BF0B6070471FB501F0E0
:1002000026FD1FBD10B510BD00F031F81146FFF7F7
:10021000F5FF01F073FA00F04FF803B4FFF7F2FFB7
:1002200003BC00F057F80000094880470948004720
:10023000FEE7FEE7FEE7FEE7FEE7FEE7FEE7FEE796
:10024000FEE7FEE704480549054A064B70470000F3
:100250008510000889010008B8000020B8060020B9
:10026000B8020020B80200207047704770477546FA
:1002700000F02CF8AE4605006946534620F0070012
:10028000854618B020B5FFF7DDFFBDE820404FF0F0
:1002900000064FF000074FF000084FF0000B21F070
:1002A0000701AC46ACE8C009ACE8C009ACE8C0093D
:1002B000ACE8C0098D46704710B50446AFF3008026
:1002C0002046BDE81040FFF7A8BF00000048704777
:1002D0005400002001491820ABBEFEE726000200B2
:1002E000704700BFFEE7000070B5B921364801F045
:1002F00044F8642001F0B6F900F022FDBCEEC00A1B
:1003000010EE100A84B2642001F0ACF9322C01DD49
:1003100000F00CF9322C56DA00F050F9BE212A48D0
:1003200001F02BF84FF42F7001F09CF900F008FD5C
:10033000BCEEC00A10EE100A86B2B421224801F0C9
:100340001CF84FF42F7001F08DF900F0F9FCBCEEB1
:10035000C00A10EE100A85B2B9211B4801F00DF851
:10036000642001F07FF9AE4215DD00BFB9211648C7
:1003700001F003F80A2001F075F900F0E1FCBCEE91
:10038000C00A10EE100A84B20A2001F06BF900F0E6
:10039000E5F8322CEADBAE4215DA00BFB9210A4893
:1003A00000F0EBFF0A2001F05DF900F0C9FCBCEEA3
:1003B000C00A10EE100A84B20A2001F053F900F0CE
:1003C000E5F8322CEADB70BD0040014000B589B091
:1003D00001A800F0D3F901A80FC8CDE90723CDE9A2
:1003E00005014E48007898B94D48007880B9002141
:1003F0004C4800F0C4FF00214A4800F0C2FF002131
:10040000494800F0BCFF0021474800F0BAFF82E0F5
:100410004248007801283DD14148007880B94248DF
:10042000059900F0ACFF00213F4800F0AAFF3D48CD
:10043000059900F0A4FF00213A4800F0A2FF6AE00D
:1004400037480078012810D13648059900F097FF09
:100450000021344800F095FF3348079900F08FFFE2
:100460000021314800F08DFF55E02D48007802282A
:1004700051D12C48089900F082FF0021294800F052
:1004800080FF2948059900F07AFF0021264800F0F6
:1004900078FF40E02148007802283CD120480078CD
:1004A00080B90021204800F06AFF1F48069900F03B
:1004B00068FF00211B4800F062FF1A48069900F00F
:1004C00060FF28E016480078012810D10021164866
:1004D00000F055FF1448079900F053FF0021114820
:1004E00000F04DFF0F48069900F04BFF13E00C4859
:1004F000007802280FD100210B4800F040FF0A4885
:10050000069900F03EFF0021064800F038FF05483C
:10051000089900F036FF09B000BD0000100000206F
:1005200011000020000001400008004010B500212B
:10053000084800F026FF4FF49671064800F01FFFB0
:100540000021054800F01DFF4FF49671024800F0AD
:1005500016FF10BD000001400008004010B500214A
:10056000084800F00CFF4FF49671064800F009FFB0
:100570000021054800F005FF4FF49671024800F095
:10058000FEFE10BD000001400008004010B5002133
:10059000084800F0F6FE4FF49671064800F0EFFEB2
:1005A0000021054800F0EBFE4FF49671024800F080
:1005B000E8FE10BD000001400008004010B5002119
:1005C000074800F0DCFE0021054800F0DAFE0021BB
:1005D000044800F0D4FE0021024800F0D2FE10BD15
:1005E00000000140000800402DE9FF4101460022C3
:1005F00000230024204E76780EB1012600E000266C
:1006000035468DF80050022008E01B4E365C871EF0
:10061000FF00BE40264434B2461CF0B20328F4DD8D
:10062000ADF80C40042007E0134E365C071FFF00B6
:10063000BE403244461CF0B20728F5DD0192082086
:1006400008E00D4E365CA0F10807FF00BE403344C1
:10065000461CF0B20B28F4DD029300250022002393
:1006600000249DE8C010DDF80C8081E8C010C1F8BE
:100670000C80BDE8FF81000034000020704710B5F9
:100680006FF0040000F0E8FC10BDF0B50A46002150
:100690000023002400BF3DE0012505FA01F31568A1
:1006A00005EA03049C4234D105684F000326BE408E
:1006B000B543056015794E00B540066835430560C1
:1006C0001579012D02D01579022D16D185684F00BC
:1006D0000326BE40B543856055794E00B540866817
:1006E00035438560456801268E40B54345604568C1
:1006F00096798E40B6B235434560C5684F000326F3
:10070000BE40B543C560D5794E00B540C668354397
:10071000C560491C1029BFD3F0BDF0B500230024EB
:100720004D07ED0E02FA05F3CE1000F1200555F845
:1007300026504E07F70E0F26BE40B543CF1000F1EE
:10074000200646F82750CE1000F1200555F8265017
:1007500045EA0304CE1000F1200545F82640F0BD1F
:100760000246002013690B400BB1012000E000207D
:1007700070470A04826170478161704730B52DED82
:10078000028B89B0044656480078012872D101A82E
:10079000FFF72AFF534801A92EC92EC01038406820
:1007A000002821DC4F49486801F0D3F941EC180BCF
:1007B0009FED4D0B53EC102B01F060F905D100209B
:1007C000059006904A49087016E0002005904549BA
:1007D000486801F0BEF921F0004101F08BF9069064
:1007E00002204349087007E0002006903D48406819
:1007F000059001203E4908703A48806800282CDCAA
:100800003849886801F0A5F941EC180B9FED360BCB
:1008100053EC102B01F032F905D10020079008901D
:10082000344908702CE02F48806810F1960F0EDADA
:10083000002007902B49886801F08BF921F00041D6
:1008400001F058F9089002202A49087018E00020A9
:10085000079008902749087012E02248806896287F
:1008600009DD002008901F48806807900120214979
:10087000087005E02CE00020079008901D490870E2
:100880001848B0F90C000599884203DA1548B0F908
:100890000C0005901348B0F90C000699884203DA61
:1008A0001048B0F90C0006900E48B0F90C000799FA
:1008B000884203DA0B48B0F90C0007900948B0F9F8
:1008C0000C000899884203DA0648B0F90C00089039
:1008D00005A80FC884E80F0009B0BDEC028B30BD3D
:1008E0002200002024000020000000000000000082
:1008F000100000201100002000BFFEE710B588B0F6
:1009000004460121022000F075F90121880400F05D
:1009100081F907220A212748FFF7FFFE07220B2152
:100920002448FFF7FAFE02208DF808008DF8090030
:1009300000208DF80A0001208DF80B008002019044
:1009400001A91C48FFF7A1FE4FF40060019001A926
:100950001848FFF79AFE04940020ADF81400ADF893
:100960001600ADF81800ADF81C000C20ADF81A0008
:1009700004A9114800F004FE4FF4E06000F02EF9E5
:1009800027208DF80C0000208DF80D008DF80E004A
:1009900001208DF80F0003A800F0E4F8012240F2D6
:1009A0002551054800F0C7FD0121034800F08DFDE9
:1009B00008B010BD000402400048004000B58BB0F4
:1009C0000121042000F026F90121082000F012F98D
:1009D00002208DF8280000208DF82A0001208DF8D3
:1009E00029008DF82B008003099009A92348FFF7FF
:1009F0004CFE4FF40040099009A92048FFF745FE3E
:100A000002220E211D48FFF788FE02220F211B48FB
:100A1000FFF783FE5320ADF8040040F2E730029068
:100A20000020ADF80600ADF80C0001A9144800F054
:100A3000ABFC6020ADF810000020ADF81C00069063
:100A40000120ADF8120004A90D4800F0F3FB04A941
:100A50000B4800F049FC0821094800F03BFC082144
:100A6000074800F07DFC0121054800F053FB0121FF
:100A7000034800F05EFB0BB000BD0000000C02401C
:100A80000008004000B58BB00121084600F0D2F804
:100A90000121102000F0AEF802208DF8280000207F
:100AA0008DF82A0001208DF829008DF82B004003D5
:100AB000099009A92748FFF7E8FD4FF48040099005
:100AC00009A92448FFF7E1FD01220D212148FFF784
:100AD00024FE01220E211F48FFF71FFEA720ADF8BC
:100AE000040040F2E73002900020ADF80600ADF8B7
:100AF0000C0001A9184800F047FC7020ADF8100068
:100B00000220ADF81C00002006900120ADF8120074
:100B10000020ADF8200004A90F4800F08BFB04A9C9
:100B20000D4800F0E1FB08210B4800F0D3FB082141
:100B3000094800F015FC0121074800F0EBFA0121FB
:100B4000054800F002FB0121034800F0F2FA0BB067
:100B500000BD0000001002400000014000BFFEE7A1
:100B60007047000070B5002100230F22C4781CB329
:100B7000174C246804F4E064C4F5E064C4F307216E
:100B8000C1F10404E3B20A4144789C40E1B28478A4
:100B9000144021430C07210E0E4C05786155047852
:100BA00004F01F050124AC4005786D11AD0005F17E
:100BB000E025C5F8004109E0047804F01F05012490
:100BC000AC40054D0678761145F8264070BD000012
:100BD0000CED00E000E400E080E100E002490143A8
:100BE000024A1160704700000000FA050CED00E0B9
:100BF0007047000029B1064A12680243044B1A608C
:100C000004E0034A12688243014B1A6070470000F7
:100C10003038024029B1064A12680243044B1A6078
:100C200004E0034A12688243014B1A6070470000D7
:100C30004038024029B1064A12680243044B1A6048
:100C400004E0034A12688243014B1A6070470000B7
:100C500044380240F0B5002100220024022500267D
:100C60000223324F3F6807F00C0121B1042905D05F
:100C7000082937D105E02E4F076036E02D4F076079
:100C800033E02A4F3F1F3F68C7F38056274F3F1F6F
:100C90003F6807F03F036EB1264FB7FBF3F7DFF86D
:100CA0008CC0ACF1040CDCF800C0CCF3881C07FB52
:100CB0000CF40CE01E4FB7FBF3F7DFF870C0ACF19B
:100CC000040CDCF800C0CCF3881C07FB0CF4174FB5
:100CD0003F1F3F68C7F301477F1C7D00B4FBF5F75A
:100CE000076002E0124F076000BF00BF0F4F3F6870
:100CF00007F0F0010909104F7A5C0768D740476098
:100D00000A4F3F6807F4E051890A0B4F7A5C476845
:100D1000D7408760054F3F6807F46041490B064F95
:100D20007A5C4768D740C760F0BD000008380240D1
:100D30000024F40000127A00000000207047000038
:100D400070B52DED068B00259FED2E0AB0EE408A82
:100D50009FED2C0AF0EE408A46E004212A48FFF776
:100D60000BFD142000F0A4FC04212748FFF701FD2F
:100D700000BF08212448FFF7F3FC0028F9D0012127
:100D8000224800F0D6F96D1C00BF08211E48FFF76D
:100D9000E7FC0128F9D000211C4800F0CAF91B48E3
:100DA00000F0E2F984B21A49096801EB4102C2EB92
:100DB000C11104EBC10000F0E3FE9FED160B53ECF4
:100DC000102B00F003FD00F0C3FC08EE100A38EE13
:100DD000280AF0EE408A00200C49243108600C49B2
:100DE00008600A2000F03EFC052DB6D1B1EE040AE1
:100DF000C8EE800AB0EE608AB0EE480ABDEC068B01
:100E000070BD00000000000000000240000400402F
:100E10001C0000200000000000004D400CB5002028
:100E2000019000903448006840F4803032490860F6
:100E300000BF3148006800F4003000900198401C69
:100E40000190009818B90198B0F5A04FF1D12A4847
:100E5000006800F4003010B10120009001E0002093
:100E600000900098012846D123484030006840F0A7
:100E700080502149403108602048006840F44040DB
:100E80001E4908601C48083000681B49083108608A
:100E90000846006840F4004008600846006840F4D6
:100EA000A05008601648091F0860081F006840F03D
:100EB0008070091F086000BF0F48006800F00070D4
:100EC0000028F9D040F205700E4908600A48083041
:100ED000006820F0030008490831086008460068EF
:100EE00040F00200086000BF03480830006800F0CE
:100EF0000C000828F8D10CBD0038024000700040FA
:100F000008544007003C024000B58BB001210804A2
:100F1000FFF790FE01211020FFF76CFE20200990C2
:100F200002208DF8280000208DF82A0001208DF87D
:100F300029008DF82B0009A91948FFF7A6FB032209
:100F400005211748FFF7E9FB44F29F10ADF80400B4
:100F5000C72002900020ADF80600ADF80C0001A9F2
:100F6000104800F011FA7020ADF810000020ADF824
:100F70001C0006900120ADF8120004A9094800F0F9
:100F800011F90821074800F04BF90121054800F04C
:100F9000C1F80121034800F0CCF80BB000BD0000FF
:100FA000001002400040014000B587B00121084612
:100FB000FFF720FE01210220FFF72CFE0420059000
:100FC00001208DF8180000208DF81A0002208DF8FD
:100FD000190001208DF81B0005A91D48FFF755FBDE
:100FE0000820059000208DF8180001208DF81B00C6
:100FF00005A91748FFF749FB5320ADF8040040F25C
:10100000E73002900020ADF80600ADF80C0001A911
:10101000104800F0B9F9012211460E4800F0B8F866
:101020004FF4A060FFF7DAFD00208DF811008DF875
:1010300012001D208DF8100001208DF8130004A867
:10104000FFF790FD0021034800F073F807B000BDE2
:101050000000024000040040042808D14FF0E021C5
:10106000096941F004014FF0E022116107E04FF0FF
:10107000E021096921F004014FF0E022116170477D
:101080007047000010B51548006840F4700013491F
:1010900008601348006840F0010011490860002012
:1010A0000F49083108600E4800680E4908400C4995
:1010B00008600D48091D0860081F006820F48020A2
:1010C000091F0860002006490C310860FFF7A6FEE2
:1010D0004FF0006001498039086010BD88ED00E0E4
:1010E00000380240FFFFF6FE1030002410B5012149
:1010F000064800F03CF840B10121044800F016F821
:1011000003480068401C0249086010BD000400400C
:101110001C00002021B1028842F08002028004E01D
:1011200002884FF67F731A4002807047CA430282DA
:10113000704721B1028842F00102028004E0028877
:101140004FF6FE731A400280704731B1B0F8442068
:1011500042F40042A0F8442005E0B0F84420C2F375
:101160000E02A0F8442070470146486A704730B527
:101170000246002000230024158A05EA0103958910
:1011800005EA010413B10CB1012000E0002030BDDC
:101190001AB183890B43838102E083898B43838166
:1011A0007047000070B5002400220023058C4FF624
:1011B000FE7635400584028C8388048B4FF68F754C
:1011C0002C40B51E2C400D882C43751E2A408D895D
:1011D0002A434D882A43104DA84202D00F4DA84201
:1011E00013D14FF6F7752A40CD892A434FF6FB7588
:1011F0002A408D882A434FF6FF652B404FF6FF5556
:101200002B400D8A2B434D8A2B43838004838D68AA
:101210004563028470BD00000000014000040140ED
:101220000A460021018B4FF6F773194011430183E1
:101230007047000070B5002400220023058C4FF693
:10124000FF6635400584028C8388848B4FF68F754A
:101250002C404FF6FC752C400D882C434FF6FF5563
:101260002A408D894FF6FF7606EA05252A434D88E8
:1012700006EA05252A43154DA84202D0144DA8427E
:101280001DD14FF2FF752A40CD894FF6FF7606EA51
:1012900005252A434FF6FF352A408D8806EA0525A5
:1012A0002A434EF6FF752B404DF6FF752B400D8AF5
:1012B00006EA05152B434D8A06EA05152B43838064
:1012C00084838D68C563028470BD00000000014006
:1012D000000401400A460021818B4FF6F773194044
:1012E000114381837047000070B500220023002461
:1012F000058C4EF6FF7635400584038C8488828BFE
:1013000048F6FF752A404FF6FF452A400D884FF6F4
:10131000FF7606EA05252A434DF6FF752B408D8999
:1013200006EA05352B434D8806EA05352B430A4D61
:10133000A84202D0094DA84208D14BF6FF752C40B7
:101340000D8A4FF6FF7606EA85152C43848082834A
:101350008D680564038470BD0000014000040140F5
:101360000A460021818B4FF2FF7319404FF6FF733D
:1013700003EA022319438183704741637047C163C5
:10138000704701647047000000220288184B9842A1
:101390000ED0184B98420BD0B0F1804F08D0164BAE
:1013A000984205D0154B984202D0154B984204D173
:1013B0004FF68F731A404B881A43124B984207D04E
:1013C000114B984204D04FF6FF431A400B891A4341
:1013D00002804B68C3620B880385054B984202D09C
:1013E000044B984201D18B7A038601238382704794
:1013F00000000140000401400004004000080040DB
:10140000000C0040001000400014004010B540F2F5
:101410002551204800F065F801281AD11D4800F038
:1014200019F91D49087008460078A52802D1012045
:101430001A4908701948007801280AD1164800781E
:101440001749184A1278885416480078401C1549E4
:101450000870144800780E280CD10F4800785A28DC
:1014600008D100200F4908700C49087001200E496E
:10147000087008E00B4800780E2804DD00200749BA
:1014800008700849087040F22551024800F00EF833
:1014900010BD000000480040230000202100002073
:1014A00034000020200000202200002010B500227F
:1014B000002340F66A14A14200D100BF0A120124A1
:1014C0009440A3B2DC43048010BD21B1828942F470
:1014D0000052828104E082894DF6FF731A408281B6
:1014E000704770B50246002400230025002040F616
:1014F0006A16B14200D100BFC1F3421501F01F03CB
:10150000012606FA03F3012D02D19689334006E045
:10151000022D02D1168A334001E0968A33400C1224
:10152000012606FA04F41688344013B10CB10120E8
:1015300000E0002070BDF0B5034600240026002521
:10154000002040F66A17B94200D100BF1846C1F327
:10155000421401F01F06012707FA06F5012C01D1FC
:101560000C3004E0022C01D1103000E014301AB12C
:1015700007682F43076002E00768AF430760F0BDCC
:101580002DE9FF4705460E460024A14600BFA046B0
:10159000B08900B100BF2C8A24F44054F088044381
:1015A0002C82AC8941F20C608443B08831890843B5
:1015B000718908430443AC81AC8A24F44074B08937
:1015C0000443AC826846FFF745FB2048854202D0C1
:1015D0001F48854202D1DDF80C9001E0DDF808904B
:1015E000A88900F4004040B109EBC90000EB0910E4
:1015F00031684900B0FBF1F707E009EBC90000EBE7
:10160000091031688900B0FBF1F76420B7FBF0F0F6
:1016100004012009642101FB1078A88900F400402E
:1016200040B1322000EBC800B0FBF1F000F0070041
:10163000044308E0322000EB08106421B0FBF1F015
:1016400000F00F0004432C81BDE8FF87001001402B
:101650000014014001468888C0F30800704700BFAD
:10166000FEE700000021114A12684243521E4FF06B
:10167000E0235A6100229A611A46126942F001027F
:101680001A6100BF4FF0E022116901F001021AB1A6
:1016900001F48032002AF5D04FF0E022126922F0E6
:1016A00001024FF0E0231A6170470000180000208B
:1016B0000021114A12684243521E4FF0E0235A6142
:1016C00000229A611A46126942F001021A6100BFB3
:1016D0004FF0E022116901F001021AB101F48032E9
:1016E000002AF5D04FF0E022126922F001024FF0FB
:1016F000E0231A6170470000140000201FB5FFF7B7
:1017000003FCFFF751FCFEF7BAFFFFF757F9FFF7AD
:10171000B9F94FF41650FFF7F1F813E00A480078D2
:1017200001280FD16846FEF75FFF08489DE81E00BC
:101730001EC010380078012802D1FEF7D5FD01E067
:10174000FEF744FEEAE7000022000020240000200B
:1017500021F00042A2F16052B2F5801F01F0004377
:1017600028BFD2F17F6C0BD95FEA001C43EAC202AA
:1017700042EB507018BF704728BF20F0010070473F
:10178000B2F5801FBCBF184670474FEA410C1CF5EC
:10179000001F02D2084600F05FBA70B500F003FAED
:1017A00000000089FFF7F6BF4FF00040A0F5800071
:1017B0007047491058BFC1F140415B1058BFC3F199
:1017C00040438B42EFF30080704700002DE9C04199
:1017D00030B4DFF8A0C23CEA111418BF3CEA13147D
:1017E00000F0EC8081EA03051CEA111444EAD57488
:1017F00018BF1CEA131500F0C780A4EB05044FF0D6
:10180000004545EAC12145EAC32341EA505143EA74
:10181000525304F17F74994204F500344FEAC0201A
:101820004FEAC22208BF904200F09C804FEA136545
:101830000FF24016765D4FEA134506FB05F7C7F138
:10184000807706FB07F74FEAD737A7FB0368764296
:10185000C8F58038A7FB06CE38BFA8F1010807FB02
:1018600008E64FF0000EA6FB028CE6FB03CEDCF18F
:10187000000CCEF1004E38BFAEF1010EA6FB0C58A5
:101880004FF000074FF00005E6FB0E87A1FB08C6EE
:10189000A0FB07CE16EB0E0645F10005E1FB076540
:1018A00015F1E04E7EBFA4F580345FEA46066D4137
:1018B00016F1800745F100054FEA17274FEA066643
:1018C00047EA0567A6F1DE46B6F1805F4FEA1525C7
:1018D0001FD9384624F0010C05EBC471BCF1FE6F32
:1018E00001EB0C1102D8F0BCBDE8008124425CBFC2
:1018F00001F5801E9EEAC47F02D4F0BCBDE80081E1
:10190000244238D4F0BCA1F1C041BDE8004100F050
:1019100098B94FEAD22242EA43524FEAD323A7FBB7
:1019200002864FEAD02040EA415007FB03661EEAD8
:101930000E0F4FEAD12105FB026658BFA6EB0056F9
:10194000B6EB00564FEA520E4EEAC37E18EB0E0E6F
:1019500056EB530EBDD518EB02085E417F1C55F1C6
:101960000005B6E74FF480154FF000074FF0000672
:101970004FF00008ADE7F0BC4FF0000001F1C041AE
:1019800001F00041BDE8008111EA0C1F0CEA1315BB
:1019900000D00CE013EA0C1F00F025804FF000008F
:1019A000F0BC81EA030101F00041BDE80081F0BC18
:1019B000BDE8004181EA030100F043B9F0BCBDE895
:1019C000004170B500F0EFF8097EFC3E00F007B86A
:1019D00081EA03014FF0000001F00041704781EA05
:1019E000030100F02EB9F0BCBDE800414FF000004B
:1019F00021497047FFFDFBF9F7F5F4F2F0EEEDEB4E
:101A0000E9E8E6E4E3E1E0DEDDDBDAD8D7D5D4D3FC
:101A1000D1D0CFCDCCCBCAC8C7C6C5C4C2C1C0BF48
:101A2000BEBDBCBBBAB9B8B7B6B5B4B3B2B1B0AF4E
:101A3000AEADACABAAA9A8A8A7A6A5A4A3A3A2A132
:101A4000A09F9F9E9D9C9C9B9A99999897979695ED
:101A500095949393929191908F8F8E8E8D8C8C8B89
:101A60008B8A898988888787868585848483838211
:101A7000828181800000FF070000F87F51EA030C9B
:101A800017D41CF5801F58BFBCF5801F00F10680DD
:101A9000994218BF704708BF9042704707D711F5A9
:101AA000801F58BF13F5801F19D49942704789428F
:101AB00070471CF5801F08D5BCF5801FF7D58B42F9
:101AC00018BF704708BF824270474FF4001C1CEBE0
:101AD000410F38BF1CEB430F01D28B42704770B5EA
:101AE00000F061F8922449004FF000514FF080530C
:101AF000FFF75FBE4FEA41034FEA5353A3F58063FC
:101B0000D3F11E03C8BFD3F1210C0CDD4FF000420E
:101B100042EAC12242EA505232FA03FC8CEAE17CEA
:101B2000ACEBE1707047102BC4BF0020704703F589
:101B3000787CBCF1FF3F04D06FF0004282EA2100C4
:101B4000704770B500F02FF849922480002070474C
:101B5000F2E710F0004248BF4042B0FA80F310FABA
:101B600003F10AD0C3F11D0303F580634FEA41502E
:101B700002EB035202EBD12170474FF00000704797
:101B8000B0FA80F310FA03F10AD0C3F11D0303F594
:101B900080634FEA41504FEA035202EBD121704774
:101BA0004FF0000070470EF1020E2EF0030E5EF8AB
:101BB000046B364205D4012A43EB030515F5001FDB
:101BC00012D8012841EB010C1CF5001F0CD80ED1D6
:101BD0004FEAD17C15F5001F0CEB4C0C0CF1020CFC
:101BE00008BF4CEBD37C04E04FF0080C01E04FEA57
:101BF000D37C0CEB4C0526FA05F606F00706B6F189
:101C0000040C06D20EEB860CBDE870404CF0010CC3
:101C10006047DFE80CF0090B02024FF000414FF083
:101C20000000A1F5002170BD19461046012851EBB6
:101C3000010418BFD4F5001484BF002001F0004156
:101C400070BD0808A0F500114FEA310170474FF050
:101C50004070E1EE100A7047FF2141EAD050C00504
:101C600070470000841C00080000002024000000D1
:101C7000C4010008A81C00082400002094060000ED
:101C8000E001000800000000010203040102030457
:101C900006070809000000001500000008520000B7
:081CA00000000000000000003C
:040000050800018965
:00000001FF
