:020000040800F2
:10000000A806002029020008A50900083D070008ED
:10001000A1090008E30200087B11000800000000AD
:10002000000000000000000000000000810B00083C
:10003000DD04000800000000350A0008990C0008E3
:10004000430200084302000843020008430200087C
:10005000430200084302000843020008430200086C
:10006000430200084302000843020008430200085C
:10007000430200084302000843020008430200084C
:10008000430200084302000843020008430200083C
:10009000430200084302000843020008430200082C
:1000A000430200084302000843020008430200081C
:1000B000430200084302000843020008430200080C
:1000C00043020008430200084302000843020008FC
:1000D000430200084302000843020008290F0008F9
:1000E00043020008430200084302000843020008DC
:1000F00043020008430200084302000843020008CC
:1001000043020008430200084302000843020008BB
:1001100043020008430200084302000843020008AB
:10012000430200084302000843020008430200089B
:10013000430200084302000843020008430200088B
:10014000430200084302000843020008430200087B
:10015000430200084302000843020008430200086B
:10016000430200084302000843020008430200085B
:10017000430200084302000843020008430200084B
:10018000430200084302000800F002F800F03CF8C7
:100190000AA090E8000C82448344AAF10107DA45E2
:1001A00001D100F031F8AFF2090EBAE80F0013F0F8
:1001B000010F18BFFB1A43F001031847A4110000F8
:1001C000C4110000103A24BF78C878C1FAD8520789
:1001D00024BF30C830C144BF04680C6070470000C1
:1001E0000023002400250026103A28BF78C1FBD840
:1001F000520728BF30C148BF0B6070471FB501F0E0
:10020000A9F81FBD10B510BD00F031F81146FFF779
:10021000F5FF00F0B4FF00F04FF803B4FFF7F2FF72
:1002200003BC00F057F80000094880470948004720
:10023000FEE7FEE7FEE7FEE7FEE7FEE7FEE7FEE796
:10024000FEE7FEE704480549054A064B70470000F3
:100250009D0C000889010008A8000020A8060020C5
:10026000A8020020A802002070477047704775461A
:1002700000F02CF8AE4605006946534620F0070012
:10028000854618B020B5FFF7DDFFBDE820404FF0F0
:1002900000064FF000074FF000084FF0000B21F070
:1002A0000701AC46ACE8C009ACE8C009ACE8C0093D
:1002B000ACE8C0098D46704710B50446AFF3008026
:1002C0002046BDE81040FFF7A8BF00000048704777
:1002D0004800002001491820ABBEFEE726000200BE
:1002E000704700BFFEE7000000B589B001A800F02C
:1002F00067F901A80FC8CDE90723CDE905014E48EC
:10030000007898B94D48007880B900214C4800F039
:10031000C4FD00214A4800F0C2FD0021494800F018
:10032000BCFD0021474800F0BAFD82E04248007859
:1003300001283DD14148007880B94248059900F034
:10034000ACFD00213F4800F0AAFD3D48059900F0B2
:10035000A4FD00213A4800F0A2FD6AE03748007889
:10036000012810D13648059900F097FD0021344846
:1003700000F095FD3348079900F08FFD00213148CA
:1003800000F08DFD55E02D480078022851D12C4811
:10039000089900F082FD0021294800F080FD2948DD
:1003A000059900F07AFD0021264800F078FD40E034
:1003B0002148007802283CD12048007880B90021EB
:1003C000204800F06AFD1F48069900F068FD0021F2
:1003D0001B4800F062FD1A48069900F060FD28E015
:1003E00016480078012810D10021164800F055FD6C
:1003F0001448079900F053FD0021114800F04DFD0D
:100400000F48069900F04BFD13E00C4800780228D5
:100410000FD100210B4800F040FD0A48069900F07A
:100420003EFD0021064800F038FD0548089900F01F
:1004300036FD09B000BD00001000002011000020B2
:1004400000000140000800402DE9FF410146002264
:1004500000230024204E76780EB1012600E000260D
:1004600035468DF80050022008E01B4E365C871E92
:10047000FF00BE40264434B2461CF0B20328F4DD2F
:10048000ADF80C40042007E0134E365C071FFF0058
:10049000BE403244461CF0B20728F5DD0192082028
:1004A00008E00D4E365CA0F10807FF00BE40334463
:1004B000461CF0B20B28F4DD029300250022002335
:1004C00000249DE8C010DDF80C8081E8C010C1F860
:1004D0000C80BDE8FF81000028000020704710B5A7
:1004E0006FF0040000F0C4FB10BDF0B50A46002117
:1004F0000023002400BF3DE0012505FA01F3156843
:1005000005EA03049C4234D105684F000326BE402F
:10051000B543056015794E00B54006683543056062
:100520001579012D02D01579022D16D185684F005D
:100530000326BE40B543856055794E00B5408668B8
:1005400035438560456801268E40B5434560456862
:1005500096798E40B6B235434560C5684F00032694
:10056000BE40B543C560D5794E00B540C668354339
:10057000C560491C1029BFD3F0BDF0B5002300248D
:100580004D07ED0E02FA05F3CE1000F1200555F8E7
:1005900026504E07F70E0F26BE40B543CF1000F190
:1005A000200646F82750CE1000F1200555F82650B9
:1005B00045EA0304CE1000F1200545F82640F0BDC1
:1005C00030B52DED028B89B00446564800780128DD
:1005D00072D101A8FFF738FF534801A92EC92EC0D8
:1005E00010384068002821DC4F49486800F04DFE73
:1005F00041EC180B9FED4D0B53EC102B00F0DAFD86
:1006000005D10020059006904A49087016E00020A8
:1006100005904549486800F038FE21F0004100F09F
:1006200005FE069002204349087007E0002006906E
:100630003D484068059001203E4908703A4880686E
:1006400000282CDC3849886800F01FFE41EC180BAC
:100650009FED360B53EC102B00F0ACFD05D10020C4
:1006600007900890344908702CE02F48806810F1FA
:10067000960F0EDA002007902B49886800F005FEDF
:1006800021F0004100F0D2FD089002202A490870B4
:1006900018E00020079008902749087012E02248CF
:1006A0008068962809DD002008901F488068079020
:1006B00001202149087005E02CE0002007900890F7
:1006C0001D4908701848B0F90C000599884203DAF2
:1006D0001548B0F90C0005901348B0F90C000699C4
:1006E000884203DA1048B0F90C0006900E48B0F9C1
:1006F0000C000799884203DA0B48B0F90C00079008
:100700000948B0F90C000899884203DA0648B0F9A4
:100710000C00089005A80FC884E80F0009B0BDECD4
:10072000028B30BD140000201800002000000000E3
:1007300000000000100000201100002000BFFEE7B4
:1007400010B588B004460121022000F075F901219E
:10075000880400F081F907220A212748FFF70DFFDE
:1007600007220B212448FFF708FF02208DF808001C
:100770008DF8090000208DF80A0001208DF80B008B
:100780008002019001A91C48FFF7AFFE4FF4006002
:10079000019001A91848FFF7A8FE04940020ADF8C5
:1007A0001400ADF81600ADF81800ADF81C000C20D0
:1007B000ADF81A0004A9114800F070FC4FF4E06095
:1007C00000F02EF927208DF80C0000208DF80D0088
:1007D0008DF80E0001208DF80F0003A800F0E4F85A
:1007E000012240F22551054800F033FC0121034865
:1007F00000F0F9FB08B010BD0004024000480040C2
:1008000000B58BB00121042000F026F90121082059
:1008100000F012F902208DF8280000208DF82A003F
:1008200001208DF829008DF82B008003099009A97B
:100830002348FFF75AFE4FF40040099009A92048C9
:10084000FFF753FE02220E211D48FFF796FE0222FB
:100850000F211B48FFF791FE5320ADF8040040F232
:10086000E73002900020ADF80600ADF80C0001A9B9
:10087000144800F017FB6020ADF810000020ADF820
:100880001C0006900120ADF8120004A90D4800F0EC
:1008900061FA04A90B4800F0B7FA0821094800F0F2
:1008A000A9FA0821074800F0EBFA0121054800F0F9
:1008B00029FA0121034800F031FA0BB000BD000015
:1008C000000C02400008004000B58BB00121084632
:1008D00000F0D2F80121102000F0AEF802208DF8CF
:1008E000280000208DF82A0001208DF829008DF8BD
:1008F0002B004003099009A92748FFF7F6FD4FF4A4
:100900008040099009A92448FFF7EFFD01220D213D
:100910002148FFF732FE01220E211F48FFF72DFE6E
:10092000A720ADF8040040F2E73002900020ADF8B7
:100930000600ADF80C0001A9184800F0B3FA7020C9
:10094000ADF810000220ADF81C0000200690012038
:10095000ADF812000020ADF8200004A90F4800F007
:10096000F9F904A90D4800F04FFA08210B4800F0EE
:1009700041FA0821094800F083FA0121074800F0F4
:10098000C1F90121054800F0D5F90121034800F023
:10099000C5F90BB000BD000000100240000001408E
:1009A00000BFFEE77047000070B5002100230F2252
:1009B000C4781CB3174C246804F4E064C4F5E06404
:1009C000C4F30721C1F10404E3B20A4144789C4016
:1009D000E1B28478144021430C07210E0E4C0578B7
:1009E0006155047804F01F050124AC4005786D11B1
:1009F000AD0005F1E025C5F8004109E0047804F0F8
:100A00001F050124AC40054D0678761145F82640B7
:100A100070BD00000CED00E000E400E080E100E0CB
:100A200002490143024A1160704700000000FA05C4
:100A30000CED00E07047000029B1064A126802433D
:100A4000044B1A6004E0034A12688243014B1A60A7
:100A5000704700003038024029B1064A126802434C
:100A6000044B1A6004E0034A12688243014B1A6087
:100A7000704700004038024029B1064A126802431C
:100A8000044B1A6004E0034A12688243014B1A6067
:100A90007047000044380240F0B5002100220024D5
:100AA000022500260223324F3F6807F00C0121B1D6
:100AB000042905D0082937D105E02E4F076036E01C
:100AC0002D4F076033E02A4F3F1F3F68C7F3805622
:100AD000274F3F1F3F6807F03F036EB1264FB7FB1C
:100AE000F3F7DFF88CC0ACF1040CDCF800C0CCF3F9
:100AF000881C07FB0CF40CE01E4FB7FBF3F7DFF884
:100B000070C0ACF1040CDCF800C0CCF3881C07FB0F
:100B10000CF4174F3F1F3F68C7F301477F1C7D0050
:100B2000B4FBF5F7076002E0124F076000BF00BF9B
:100B30000F4F3F6807F0F0010909104F7A5C076812
:100B4000D74047600A4F3F6807F4E051890A0B4FCE
:100B50007A5C4768D7408760054F3F6807F460417B
:100B6000490B064F7A5C4768D740C760F0BD00006C
:100B7000083802400024F40000127A00000000202F
:100B8000704700000CB500200190009034480068C8
:100B900040F480303249086000BF3148006800F4FA
:100BA000003000900198401C0190009818B90198FD
:100BB000B0F5A04FF1D12A48006800F4003010B120
:100BC0000120009001E0002000900098012846D10B
:100BD00023484030006840F080502149403108608F
:100BE0002048006840F440401E4908601C48083016
:100BF00000681B49083108600846006840F400405E
:100C000008600846006840F4A05008601648091FB4
:100C10000860081F006840F08070091F086000BF6E
:100C20000F48006800F000700028F9D040F205700D
:100C30000E4908600A480830006820F0030008499F
:100C4000083108600846006840F00200086000BFF4
:100C500003480830006800F00C000828F8D10CBDEB
:100C6000003802400070004008544007003C024039
:100C7000042808D14FF0E021096941F004014FF048
:100C8000E022116107E04FF0E021096921F0040141
:100C90004FF0E022116170477047000010B5154811
:100CA000006840F47000134908601348006840F081
:100CB00001001149086000200F49083108600E4802
:100CC00000680E4908400C4908600D48091D08607D
:100CD000081F006820F48020091F086000200649D2
:100CE0000C310860FFF74EFF4FF00060014980397A
:100CF000086010BD88ED00E000380240FFFFF6FEFE
:100D00001030002421B1028842F08002028004E009
:100D100002884FF67F731A400280704721B1028823
:100D200042F00102028004E002884FF6FE731A408E
:100D30000280704731B1B0F8442042F40042A0F87C
:100D4000442005E0B0F84420C2F30E02A0F844208D
:100D50007047000070B5002400220023058C4FF678
:100D6000FF6635400584028C8388848B4FF68F752F
:100D70002C404FF6FC752C400D882C434FF6FF5548
:100D80002A408D894FF6FF7606EA05252A434D88CD
:100D900006EA05252A43154DA84202D0144DA84263
:100DA0001DD14FF2FF752A40CD894FF6FF7606EA36
:100DB00005252A434FF6FF352A408D8806EA05258A
:100DC0002A434EF6FF752B404DF6FF752B400D8ADA
:100DD00006EA05152B434D8A06EA05152B43838049
:100DE00084838D68C563028470BD000000000140EB
:100DF000000401400A460021818B4FF6F773194029
:100E0000114381837047000070B500220023002445
:100E1000058C4EF6FF7635400584038C8488828BE2
:100E200048F6FF752A404FF6FF452A400D884FF6D9
:100E3000FF7606EA05252A434DF6FF752B408D897E
:100E400006EA05352B434D8806EA05352B430A4D46
:100E5000A84202D0094DA84208D14BF6FF752C409C
:100E60000D8A4FF6FF7606EA85152C43848082832F
:100E70008D680564038470BD0000014000040140DA
:100E80000A460021818B4FF2FF7319404FF6FF7322
:100E900003EA0223194381837047C16370470164E9
:100EA0007047000000220288184B98420ED0184B61
:100EB00098420BD0B0F1804F08D0164B984205D025
:100EC000154B984202D0154B984204D14FF68F73C0
:100ED0001A404B881A43124B984207D0114B984244
:100EE00004D04FF6FF431A400B891A4302804B6827
:100EF000C3620B880385054B984202D0044B98428D
:100F000001D18B7A03860123838270470000014060
:100F1000000401400004004000080040000C0040B4
:100F2000001000400014004010B540F22551204848
:100F300000F065F801281AD11D4800F019F91D4983
:100F4000087008460078A52802D101201A490870C7
:100F50001948007801280AD1164800781749184A1C
:100F60001278885416480078401C154908701448B7
:100F700000780E280CD10F4800785A2808D100209C
:100F80000F4908700C49087001200E49087008E0EC
:100F90000B4800780E2804DD002007490870084936
:100FA000087040F22551024800F00EF810BD000014
:100FB00000480040150000201300002028000020F9
:100FC000120000201400002010B50022002340F67B
:100FD0006A14A14200D100BF0A1201249440A3B2B6
:100FE000DC43048010BD21B1828942F40052828129
:100FF00004E082894DF6FF731A408281704770B514
:101000000246002400230025002040F66A16B14263
:1010100000D100BFC1F3421501F01F03012606FAFB
:1010200003F3012D02D19689334006E0022D02D14F
:10103000168A334001E0968A33400C12012606FAE4
:1010400004F41688344013B10CB1012000E00020F4
:1010500070BDF0B50346002400260025002040F6B0
:101060006A17B94200D100BF1846C1F3421401F01B
:101070001F06012707FA06F5012C01D10C3004E008
:10108000022C01D1103000E014301AB107682F4350
:10109000076002E00768AF430760F0BD2DE9FF4736
:1010A00005460E460024A14600BFA046B08900B107
:1010B00000BF2C8A24F44054F08804432C82AC896D
:1010C00041F20C608443B088318908437189084338
:1010D0000443AC81AC8A24F44074B0890443AC82EC
:1010E0006846FFF7D9FC2048854202D01F48854258
:1010F00002D1DDF80C9001E0DDF80890A88900F439
:10110000004040B109EBC90000EB0910316849000B
:10111000B0FBF1F707E009EBC90000EB09103168FB
:101120008900B0FBF1F76420B7FBF0F0040120095F
:10113000642101FB1078A88900F4004040B13220FE
:1011400000EBC800B0FBF1F000F00700044308E03A
:10115000322000EB08106421B0FBF1F000F00F002A
:1011600004432C81BDE8FF870010014000140140BA
:1011700001468888C0F30800704700BFFEE7FFF70C
:10118000AEF9FFF73DFBFFF79FFB4FF41650FFF75B
:10119000D7FA01E0FFF7A8F8FCE7491058BFC1F102
:1011A00040415B1058BFC3F140438B42EFF30080D6
:1011B0007047000051EA030C17D41CF5801F58BF7C
:1011C000BCF5801F00F10680994218BF704708BF28
:1011D0009042704707D711F5801F58BF13F5801F45
:1011E00019D499427047894270471CF5801F08D571
:1011F000BCF5801FF7D58B4218BF704708BF8242ED
:1012000070474FF4001C1CEB410F38BF1CEB430F21
:1012100001D28B42704770B500F04EF8922449001D
:101220004FF000514FF08053FFF7B7BF4FEA410333
:101230004FEA5353A3F58063D3F11E03C8BFD3F124
:10124000210C0CDD4FF0004242EAC12242EA50522A
:1012500032FA03FC8CEAE17CACEBE1707047102BB6
:10126000C4BF0020704703F5787CBCF1FF3F04D079
:101270006FF0004282EA2100704770B500F01CF860
:101280004992248000207047F2E710F0004248BFE6
:101290004042B0FA80F310FA03F10AD0C3F11D0303
:1012A00003F580634FEA415002EB035202EBD12178
:1012B00070474FF0000070470EF1020E2EF0030E43
:1012C0005EF8046B364205D4012A43EB030515F59D
:1012D000001F12D8012841EB010C1CF5001F0CD88F
:1012E0000ED14FEAD17C15F5001F0CEB4C0C0CF124
:1012F000020C08BF4CEBD37C04E04FF0080C01E07B
:101300004FEAD37C0CEB4C0526FA05F606F00706EF
:10131000B6F1040C06D20EEB860CBDE870404CF022
:10132000010C6047DFE80CF0090B02024FF00041AE
:101330004FF00000A1F5002170BD194610460128AC
:1013400051EB010418BFD4F5001484BF002001F054
:10135000004170BD4FF04070E1EE100A7047000090
:10136000801300080000002018000000C4010008DD
:10137000981300081800002090060000E001000803
:10138000000000000102030401020304060708092B
:08139000000000000000000055
:040000050800018965
:00000001FF
